{
  "_format": "hh-sol-artifact-1",
  "contractName": "ETHDaddy",
  "sourceName": "contracts/ETHDaddy.sol",
  "abi": [
    {
      "inputs": [
        {
          "internalType": "string",
          "name": "_name",
          "type": "string"
        },
        {
          "internalType": "string",
          "name": "_symbol",
          "type": "string"
        }
      ],
      "stateMutability": "nonpayable",
      "type": "constructor"
    },
    {
      "anonymous": false,
      "inputs": [
        {
          "indexed": true,
          "internalType": "address",
          "name": "owner",
          "type": "address"
        },
        {
          "indexed": true,
          "internalType": "address",
          "name": "approved",
          "type": "address"
        },
        {
          "indexed": true,
          "internalType": "uint256",
          "name": "tokenId",
          "type": "uint256"
        }
      ],
      "name": "Approval",
      "type": "event"
    },
    {
      "anonymous": false,
      "inputs": [
        {
          "indexed": true,
          "internalType": "address",
          "name": "owner",
          "type": "address"
        },
        {
          "indexed": true,
          "internalType": "address",
          "name": "operator",
          "type": "address"
        },
        {
          "indexed": false,
          "internalType": "bool",
          "name": "approved",
          "type": "bool"
        }
      ],
      "name": "ApprovalForAll",
      "type": "event"
    },
    {
      "anonymous": false,
      "inputs": [
        {
          "indexed": true,
          "internalType": "address",
          "name": "from",
          "type": "address"
        },
        {
          "indexed": true,
          "internalType": "address",
          "name": "to",
          "type": "address"
        },
        {
          "indexed": true,
          "internalType": "uint256",
          "name": "tokenId",
          "type": "uint256"
        }
      ],
      "name": "Transfer",
      "type": "event"
    },
    {
      "inputs": [
        {
          "internalType": "address",
          "name": "to",
          "type": "address"
        },
        {
          "internalType": "uint256",
          "name": "tokenId",
          "type": "uint256"
        }
      ],
      "name": "approve",
      "outputs": [],
      "stateMutability": "nonpayable",
      "type": "function"
    },
    {
      "inputs": [
        {
          "internalType": "address",
          "name": "owner",
          "type": "address"
        }
      ],
      "name": "balanceOf",
      "outputs": [
        {
          "internalType": "uint256",
          "name": "",
          "type": "uint256"
        }
      ],
      "stateMutability": "view",
      "type": "function"
    },
    {
      "inputs": [
        {
          "internalType": "uint256",
          "name": "tokenId",
          "type": "uint256"
        }
      ],
      "name": "getApproved",
      "outputs": [
        {
          "internalType": "address",
          "name": "",
          "type": "address"
        }
      ],
      "stateMutability": "view",
      "type": "function"
    },
    {
      "inputs": [],
      "name": "getBalance",
      "outputs": [
        {
          "internalType": "uint256",
          "name": "",
          "type": "uint256"
        }
      ],
      "stateMutability": "view",
      "type": "function"
    },
    {
      "inputs": [
        {
          "internalType": "uint256",
          "name": "_id",
          "type": "uint256"
        }
      ],
      "name": "getDomain",
      "outputs": [
        {
          "components": [
            {
              "internalType": "string",
              "name": "name",
              "type": "string"
            },
            {
              "internalType": "uint256",
              "name": "cost",
              "type": "uint256"
            },
            {
              "internalType": "bool",
              "name": "isOwned",
              "type": "bool"
            }
          ],
          "internalType": "struct ETHDaddy.Domain",
          "name": "",
          "type": "tuple"
        }
      ],
      "stateMutability": "view",
      "type": "function"
    },
    {
      "inputs": [
        {
          "internalType": "address",
          "name": "owner",
          "type": "address"
        },
        {
          "internalType": "address",
          "name": "operator",
          "type": "address"
        }
      ],
      "name": "isApprovedForAll",
      "outputs": [
        {
          "internalType": "bool",
          "name": "",
          "type": "bool"
        }
      ],
      "stateMutability": "view",
      "type": "function"
    },
    {
      "inputs": [
        {
          "internalType": "string",
          "name": "_name",
          "type": "string"
        },
        {
          "internalType": "uint256",
          "name": "_cost",
          "type": "uint256"
        }
      ],
      "name": "list",
      "outputs": [],
      "stateMutability": "nonpayable",
      "type": "function"
    },
    {
      "inputs": [],
      "name": "maxSupply",
      "outputs": [
        {
          "internalType": "uint256",
          "name": "",
          "type": "uint256"
        }
      ],
      "stateMutability": "view",
      "type": "function"
    },
    {
      "inputs": [
        {
          "internalType": "uint256",
          "name": "_id",
          "type": "uint256"
        }
      ],
      "name": "mint",
      "outputs": [],
      "stateMutability": "payable",
      "type": "function"
    },
    {
      "inputs": [],
      "name": "name",
      "outputs": [
        {
          "internalType": "string",
          "name": "",
          "type": "string"
        }
      ],
      "stateMutability": "view",
      "type": "function"
    },
    {
      "inputs": [],
      "name": "owner",
      "outputs": [
        {
          "internalType": "address",
          "name": "",
          "type": "address"
        }
      ],
      "stateMutability": "view",
      "type": "function"
    },
    {
      "inputs": [
        {
          "internalType": "uint256",
          "name": "tokenId",
          "type": "uint256"
        }
      ],
      "name": "ownerOf",
      "outputs": [
        {
          "internalType": "address",
          "name": "",
          "type": "address"
        }
      ],
      "stateMutability": "view",
      "type": "function"
    },
    {
      "inputs": [
        {
          "internalType": "address",
          "name": "from",
          "type": "address"
        },
        {
          "internalType": "address",
          "name": "to",
          "type": "address"
        },
        {
          "internalType": "uint256",
          "name": "tokenId",
          "type": "uint256"
        }
      ],
      "name": "safeTransferFrom",
      "outputs": [],
      "stateMutability": "nonpayable",
      "type": "function"
    },
    {
      "inputs": [
        {
          "internalType": "address",
          "name": "from",
          "type": "address"
        },
        {
          "internalType": "address",
          "name": "to",
          "type": "address"
        },
        {
          "internalType": "uint256",
          "name": "tokenId",
          "type": "uint256"
        },
        {
          "internalType": "bytes",
          "name": "data",
          "type": "bytes"
        }
      ],
      "name": "safeTransferFrom",
      "outputs": [],
      "stateMutability": "nonpayable",
      "type": "function"
    },
    {
      "inputs": [
        {
          "internalType": "address",
          "name": "operator",
          "type": "address"
        },
        {
          "internalType": "bool",
          "name": "approved",
          "type": "bool"
        }
      ],
      "name": "setApprovalForAll",
      "outputs": [],
      "stateMutability": "nonpayable",
      "type": "function"
    },
    {
      "inputs": [
        {
          "internalType": "bytes4",
          "name": "interfaceId",
          "type": "bytes4"
        }
      ],
      "name": "supportsInterface",
      "outputs": [
        {
          "internalType": "bool",
          "name": "",
          "type": "bool"
        }
      ],
      "stateMutability": "view",
      "type": "function"
    },
    {
      "inputs": [],
      "name": "symbol",
      "outputs": [
        {
          "internalType": "string",
          "name": "",
          "type": "string"
        }
      ],
      "stateMutability": "view",
      "type": "function"
    },
    {
      "inputs": [
        {
          "internalType": "uint256",
          "name": "tokenId",
          "type": "uint256"
        }
      ],
      "name": "tokenURI",
      "outputs": [
        {
          "internalType": "string",
          "name": "",
          "type": "string"
        }
      ],
      "stateMutability": "view",
      "type": "function"
    },
    {
      "inputs": [],
      "name": "totalSupply",
      "outputs": [
        {
          "internalType": "uint256",
          "name": "",
          "type": "uint256"
        }
      ],
      "stateMutability": "view",
      "type": "function"
    },
    {
      "inputs": [
        {
          "internalType": "address",
          "name": "from",
          "type": "address"
        },
        {
          "internalType": "address",
          "name": "to",
          "type": "address"
        },
        {
          "internalType": "uint256",
          "name": "tokenId",
          "type": "uint256"
        }
      ],
      "name": "transferFrom",
      "outputs": [],
      "stateMutability": "nonpayable",
      "type": "function"
    },
    {
      "inputs": [],
      "name": "withdraw",
      "outputs": [],
      "stateMutability": "nonpayable",
      "type": "function"
    }
  ],
  "bytecode": "0x60806040523480156200001157600080fd5b506040516200375b3803806200375b83398181016040528101906200003791906200023b565b818181600090816200004a91906200050b565b5080600190816200005c91906200050b565b50505033600660006101000a81548173ffffffffffffffffffffffffffffffffffffffff021916908373ffffffffffffffffffffffffffffffffffffffff1602179055505050620005f2565b6000604051905090565b600080fd5b600080fd5b600080fd5b600080fd5b6000601f19601f8301169050919050565b7f4e487b7100000000000000000000000000000000000000000000000000000000600052604160045260246000fd5b6200011182620000c6565b810181811067ffffffffffffffff82111715620001335762000132620000d7565b5b80604052505050565b600062000148620000a8565b905062000156828262000106565b919050565b600067ffffffffffffffff821115620001795762000178620000d7565b5b6200018482620000c6565b9050602081019050919050565b60005b83811015620001b157808201518184015260208101905062000194565b60008484015250505050565b6000620001d4620001ce846200015b565b6200013c565b905082815260208101848484011115620001f357620001f2620000c1565b5b6200020084828562000191565b509392505050565b600082601f83011262000220576200021f620000bc565b5b815162000232848260208601620001bd565b91505092915050565b60008060408385031215620002555762000254620000b2565b5b600083015167ffffffffffffffff811115620002765762000275620000b7565b5b620002848582860162000208565b925050602083015167ffffffffffffffff811115620002a857620002a7620000b7565b5b620002b68582860162000208565b9150509250929050565b600081519050919050565b7f4e487b7100000000000000000000000000000000000000000000000000000000600052602260045260246000fd5b600060028204905060018216806200031357607f821691505b602082108103620003295762000328620002cb565b5b50919050565b60008190508160005260206000209050919050565b60006020601f8301049050919050565b600082821b905092915050565b600060088302620003937fffffffffffffffffffffffffffffffffffffffffffffffffffffffffffffffff8262000354565b6200039f868362000354565b95508019841693508086168417925050509392505050565b6000819050919050565b6000819050919050565b6000620003ec620003e6620003e084620003b7565b620003c1565b620003b7565b9050919050565b6000819050919050565b6200040883620003cb565b620004206200041782620003f3565b84845462000361565b825550505050565b600090565b6200043762000428565b62000444818484620003fd565b505050565b5b818110156200046c57620004606000826200042d565b6001810190506200044a565b5050565b601f821115620004bb5762000485816200032f565b620004908462000344565b81016020851015620004a0578190505b620004b8620004af8562000344565b83018262000449565b50505b505050565b600082821c905092915050565b6000620004e060001984600802620004c0565b1980831691505092915050565b6000620004fb8383620004cd565b9150826002028217905092915050565b6200051682620002c0565b67ffffffffffffffff811115620005325762000531620000d7565b5b6200053e8254620002fa565b6200054b82828562000470565b600060209050601f8311600181146200058357600084156200056e578287015190505b6200057a8582620004ed565b865550620005ea565b601f19841662000593866200032f565b60005b82811015620005bd5784890151825560018201915060208501945060208101905062000596565b86831015620005dd5784890151620005d9601f891682620004cd565b8355505b6001600288020188555050505b505050505050565b61315980620006026000396000f3fe60806040526004361061012a5760003560e01c80634a878dfa116100ab578063a0712d681161006f578063a0712d68146103f2578063a22cb4651461040e578063b88d4fde14610437578063c87b56dd14610460578063d5abeb011461049d578063e985e9c5146104c85761012a565b80634a878dfa146102f95780636352211e1461032257806370a082311461035f5780638da5cb5b1461039c57806395d89b41146103c75761012a565b806318160ddd116100f257806318160ddd146102285780631a7a98e21461025357806323b872dd146102905780633ccfd60b146102b957806342842e0e146102d05761012a565b806301ffc9a71461012f57806306fdde031461016c578063081812fc14610197578063095ea7b3146101d457806312065fe0146101fd575b600080fd5b34801561013b57600080fd5b5061015660048036038101906101519190611edb565b610505565b6040516101639190611f23565b60405180910390f35b34801561017857600080fd5b506101816105e7565b60405161018e9190611fce565b60405180910390f35b3480156101a357600080fd5b506101be60048036038101906101b99190612026565b610679565b6040516101cb9190612094565b60405180910390f35b3480156101e057600080fd5b506101fb60048036038101906101f691906120db565b6106bf565b005b34801561020957600080fd5b506102126107d6565b60405161021f919061212a565b60405180910390f35b34801561023457600080fd5b5061023d6107de565b60405161024a919061212a565b60405180910390f35b34801561025f57600080fd5b5061027a60048036038101906102759190612026565b6107e4565b60405161028791906121fd565b60405180910390f35b34801561029c57600080fd5b506102b760048036038101906102b2919061221f565b6108c8565b005b3480156102c557600080fd5b506102ce610928565b005b3480156102dc57600080fd5b506102f760048036038101906102f2919061221f565b610a1d565b005b34801561030557600080fd5b50610320600480360381019061031b91906123a7565b610a3d565b005b34801561032e57600080fd5b5061034960048036038101906103449190612026565b610b28565b6040516103569190612094565b60405180910390f35b34801561036b57600080fd5b5061038660048036038101906103819190612403565b610bae565b604051610393919061212a565b60405180910390f35b3480156103a857600080fd5b506103b1610c65565b6040516103be9190612094565b60405180910390f35b3480156103d357600080fd5b506103dc610c8b565b6040516103e99190611fce565b60405180910390f35b61040c60048036038101906104079190612026565b610d1d565b005b34801561041a57600080fd5b506104356004803603810190610430919061245c565b610de4565b005b34801561044357600080fd5b5061045e6004803603810190610459919061253d565b610dfa565b005b34801561046c57600080fd5b5061048760048036038101906104829190612026565b610e5c565b6040516104949190611fce565b60405180910390f35b3480156104a957600080fd5b506104b2610ec4565b6040516104bf919061212a565b60405180910390f35b3480156104d457600080fd5b506104ef60048036038101906104ea91906125c0565b610eca565b6040516104fc9190611f23565b60405180910390f35b60007f80ac58cd000000000000000000000000000000000000000000000000000000007bffffffffffffffffffffffffffffffffffffffffffffffffffffffff1916827bffffffffffffffffffffffffffffffffffffffffffffffffffffffff191614806105d057507f5b5e139f000000000000000000000000000000000000000000000000000000007bffffffffffffffffffffffffffffffffffffffffffffffffffffffff1916827bffffffffffffffffffffffffffffffffffffffffffffffffffffffff1916145b806105e057506105df82610f5e565b5b9050919050565b6060600080546105f69061262f565b80601f01602080910402602001604051908101604052809291908181526020018280546106229061262f565b801561066f5780601f106106445761010080835404028352916020019161066f565b820191906000526020600020905b81548152906001019060200180831161065257829003601f168201915b5050505050905090565b600061068482610fc8565b6004600083815260200190815260200160002060009054906101000a900473ffffffffffffffffffffffffffffffffffffffff169050919050565b60006106ca82610b28565b90508073ffffffffffffffffffffffffffffffffffffffff168373ffffffffffffffffffffffffffffffffffffffff160361073a576040517f08c379a0000000000000000000000000000000000000000000000000000000008152600401610731906126d2565b60405180910390fd5b8073ffffffffffffffffffffffffffffffffffffffff16610759611013565b73ffffffffffffffffffffffffffffffffffffffff161480610788575061078781610782611013565b610eca565b5b6107c7576040517f08c379a00000000000000000000000000000000000000000000000000000000081526004016107be90612764565b60405180910390fd5b6107d1838361101b565b505050565b600047905090565b60085481565b6107ec611e4c565b6009600083815260200190815260200160002060405180606001604052908160008201805461081a9061262f565b80601f01602080910402602001604051908101604052809291908181526020018280546108469061262f565b80156108935780601f1061086857610100808354040283529160200191610893565b820191906000526020600020905b81548152906001019060200180831161087657829003601f168201915b50505050508152602001600182015481526020016002820160009054906101000a900460ff1615151515815250509050919050565b6108d96108d3611013565b826110d4565b610918576040517f08c379a000000000000000000000000000000000000000000000000000000000815260040161090f906127f6565b60405180910390fd5b610923838383611169565b505050565b600660009054906101000a900473ffffffffffffffffffffffffffffffffffffffff1673ffffffffffffffffffffffffffffffffffffffff163373ffffffffffffffffffffffffffffffffffffffff161461098257600080fd5b6000600660009054906101000a900473ffffffffffffffffffffffffffffffffffffffff1673ffffffffffffffffffffffffffffffffffffffff16476040516109ca90612847565b60006040518083038185875af1925050503d8060008114610a07576040519150601f19603f3d011682016040523d82523d6000602084013e610a0c565b606091505b5050905080610a1a57600080fd5b50565b610a3883838360405180602001604052806000815250610dfa565b505050565b600660009054906101000a900473ffffffffffffffffffffffffffffffffffffffff1673ffffffffffffffffffffffffffffffffffffffff163373ffffffffffffffffffffffffffffffffffffffff1614610a9757600080fd5b60076000815480929190610aaa9061288b565b919050555060405180606001604052808381526020018281526020016000151581525060096000600181526020019081526020016000206000820151816000019081610af69190612a7f565b506020820151816001015560408201518160020160006101000a81548160ff0219169083151502179055509050505050565b600080610b3483611462565b9050600073ffffffffffffffffffffffffffffffffffffffff168173ffffffffffffffffffffffffffffffffffffffff1603610ba5576040517f08c379a0000000000000000000000000000000000000000000000000000000008152600401610b9c90612b9d565b60405180910390fd5b80915050919050565b60008073ffffffffffffffffffffffffffffffffffffffff168273ffffffffffffffffffffffffffffffffffffffff1603610c1e576040517f08c379a0000000000000000000000000000000000000000000000000000000008152600401610c1590612c2f565b60405180910390fd5b600360008373ffffffffffffffffffffffffffffffffffffffff1673ffffffffffffffffffffffffffffffffffffffff168152602001908152602001600020549050919050565b600660009054906101000a900473ffffffffffffffffffffffffffffffffffffffff1681565b606060018054610c9a9061262f565b80601f0160208091040260200160405190810160405280929190818152602001828054610cc69061262f565b8015610d135780601f10610ce857610100808354040283529160200191610d13565b820191906000526020600020905b815481529060010190602001808311610cf657829003601f168201915b5050505050905090565b60008103610d2a57600080fd5b600754811115610d3957600080fd5b600015156009600083815260200190815260200160002060020160009054906101000a900460ff16151514610d6d57600080fd5b6009600082815260200190815260200160002060010154341015610d9057600080fd5b60016009600083815260200190815260200160002060020160006101000a81548160ff02191690831515021790555060086000815480929190610dd29061288b565b9190505550610de1338261149f565b50565b610df6610def611013565b83836114bd565b5050565b610e0b610e05611013565b836110d4565b610e4a576040517f08c379a0000000000000000000000000000000000000000000000000000000008152600401610e41906127f6565b60405180910390fd5b610e5684848484611629565b50505050565b6060610e6782610fc8565b6000610e71611685565b90506000815111610e915760405180602001604052806000815250610ebc565b80610e9b8461169c565b604051602001610eac929190612c8b565b6040516020818303038152906040525b915050919050565b60075481565b6000600560008473ffffffffffffffffffffffffffffffffffffffff1673ffffffffffffffffffffffffffffffffffffffff16815260200190815260200160002060008373ffffffffffffffffffffffffffffffffffffffff1673ffffffffffffffffffffffffffffffffffffffff16815260200190815260200160002060009054906101000a900460ff16905092915050565b60007f01ffc9a7000000000000000000000000000000000000000000000000000000007bffffffffffffffffffffffffffffffffffffffffffffffffffffffff1916827bffffffffffffffffffffffffffffffffffffffffffffffffffffffff1916149050919050565b610fd18161176a565b611010576040517f08c379a000000000000000000000000000000000000000000000000000000000815260040161100790612b9d565b60405180910390fd5b50565b600033905090565b816004600083815260200190815260200160002060006101000a81548173ffffffffffffffffffffffffffffffffffffffff021916908373ffffffffffffffffffffffffffffffffffffffff160217905550808273ffffffffffffffffffffffffffffffffffffffff1661108e83610b28565b73ffffffffffffffffffffffffffffffffffffffff167f8c5be1e5ebec7d5bd14f71427d1e84f3dd0314c0f7b2291e5b200ac8c7c3b92560405160405180910390a45050565b6000806110e083610b28565b90508073ffffffffffffffffffffffffffffffffffffffff168473ffffffffffffffffffffffffffffffffffffffff16148061112257506111218185610eca565b5b8061116057508373ffffffffffffffffffffffffffffffffffffffff1661114884610679565b73ffffffffffffffffffffffffffffffffffffffff16145b91505092915050565b8273ffffffffffffffffffffffffffffffffffffffff1661118982610b28565b73ffffffffffffffffffffffffffffffffffffffff16146111df576040517f08c379a00000000000000000000000000000000000000000000000000000000081526004016111d690612d21565b60405180910390fd5b600073ffffffffffffffffffffffffffffffffffffffff168273ffffffffffffffffffffffffffffffffffffffff160361124e576040517f08c379a000000000000000000000000000000000000000000000000000000000815260040161124590612db3565b60405180910390fd5b61125b83838360016117ab565b8273ffffffffffffffffffffffffffffffffffffffff1661127b82610b28565b73ffffffffffffffffffffffffffffffffffffffff16146112d1576040517f08c379a00000000000000000000000000000000000000000000000000000000081526004016112c890612d21565b60405180910390fd5b6004600082815260200190815260200160002060006101000a81549073ffffffffffffffffffffffffffffffffffffffff02191690556001600360008573ffffffffffffffffffffffffffffffffffffffff1673ffffffffffffffffffffffffffffffffffffffff168152602001908152602001600020600082825403925050819055506001600360008473ffffffffffffffffffffffffffffffffffffffff1673ffffffffffffffffffffffffffffffffffffffff16815260200190815260200160002060008282540192505081905550816002600083815260200190815260200160002060006101000a81548173ffffffffffffffffffffffffffffffffffffffff021916908373ffffffffffffffffffffffffffffffffffffffff160217905550808273ffffffffffffffffffffffffffffffffffffffff168473ffffffffffffffffffffffffffffffffffffffff167fddf252ad1be2c89b69c2b068fc378daa952ba7f163c4a11628f55a4df523b3ef60405160405180910390a461145d83838360016118d1565b505050565b60006002600083815260200190815260200160002060009054906101000a900473ffffffffffffffffffffffffffffffffffffffff169050919050565b6114b98282604051806020016040528060008152506118d7565b5050565b8173ffffffffffffffffffffffffffffffffffffffff168373ffffffffffffffffffffffffffffffffffffffff160361152b576040517f08c379a000000000000000000000000000000000000000000000000000000000815260040161152290612e1f565b60405180910390fd5b80600560008573ffffffffffffffffffffffffffffffffffffffff1673ffffffffffffffffffffffffffffffffffffffff16815260200190815260200160002060008473ffffffffffffffffffffffffffffffffffffffff1673ffffffffffffffffffffffffffffffffffffffff16815260200190815260200160002060006101000a81548160ff0219169083151502179055508173ffffffffffffffffffffffffffffffffffffffff168373ffffffffffffffffffffffffffffffffffffffff167f17307eab39ab6107e8899845ad3d59bd9653f200f220920489ca2b5937696c318360405161161c9190611f23565b60405180910390a3505050565b611634848484611169565b61164084848484611932565b61167f576040517f08c379a000000000000000000000000000000000000000000000000000000000815260040161167690612eb1565b60405180910390fd5b50505050565b606060405180602001604052806000815250905090565b6060600060016116ab84611ab9565b01905060008167ffffffffffffffff8111156116ca576116c961227c565b5b6040519080825280601f01601f1916602001820160405280156116fc5781602001600182028036833780820191505090505b509050600082602001820190505b60011561175f578080600190039150507f3031323334353637383961626364656600000000000000000000000000000000600a86061a8153600a858161175357611752612ed1565b5b0494506000850361170a575b819350505050919050565b60008073ffffffffffffffffffffffffffffffffffffffff1661178c83611462565b73ffffffffffffffffffffffffffffffffffffffff1614159050919050565b60018111156118cb57600073ffffffffffffffffffffffffffffffffffffffff168473ffffffffffffffffffffffffffffffffffffffff161461183f5780600360008673ffffffffffffffffffffffffffffffffffffffff1673ffffffffffffffffffffffffffffffffffffffff16815260200190815260200160002060008282546118379190612f00565b925050819055505b600073ffffffffffffffffffffffffffffffffffffffff168373ffffffffffffffffffffffffffffffffffffffff16146118ca5780600360008573ffffffffffffffffffffffffffffffffffffffff1673ffffffffffffffffffffffffffffffffffffffff16815260200190815260200160002060008282546118c29190612f34565b925050819055505b5b50505050565b50505050565b6118e18383611c0c565b6118ee6000848484611932565b61192d576040517f08c379a000000000000000000000000000000000000000000000000000000000815260040161192490612eb1565b60405180910390fd5b505050565b60006119538473ffffffffffffffffffffffffffffffffffffffff16611e29565b15611aac578373ffffffffffffffffffffffffffffffffffffffff1663150b7a0261197c611013565b8786866040518563ffffffff1660e01b815260040161199e9493929190612fbd565b6020604051808303816000875af19250505080156119da57506040513d601f19601f820116820180604052508101906119d7919061301e565b60015b611a5c573d8060008114611a0a576040519150601f19603f3d011682016040523d82523d6000602084013e611a0f565b606091505b506000815103611a54576040517f08c379a0000000000000000000000000000000000000000000000000000000008152600401611a4b90612eb1565b60405180910390fd5b805181602001fd5b63150b7a0260e01b7bffffffffffffffffffffffffffffffffffffffffffffffffffffffff1916817bffffffffffffffffffffffffffffffffffffffffffffffffffffffff191614915050611ab1565b600190505b949350505050565b600080600090507a184f03e93ff9f4daa797ed6e38ed64bf6a1f0100000000000000008310611b17577a184f03e93ff9f4daa797ed6e38ed64bf6a1f0100000000000000008381611b0d57611b0c612ed1565b5b0492506040810190505b6d04ee2d6d415b85acef81000000008310611b54576d04ee2d6d415b85acef81000000008381611b4a57611b49612ed1565b5b0492506020810190505b662386f26fc100008310611b8357662386f26fc100008381611b7957611b78612ed1565b5b0492506010810190505b6305f5e1008310611bac576305f5e1008381611ba257611ba1612ed1565b5b0492506008810190505b6127108310611bd1576127108381611bc757611bc6612ed1565b5b0492506004810190505b60648310611bf45760648381611bea57611be9612ed1565b5b0492506002810190505b600a8310611c03576001810190505b80915050919050565b600073ffffffffffffffffffffffffffffffffffffffff168273ffffffffffffffffffffffffffffffffffffffff1603611c7b576040517f08c379a0000000000000000000000000000000000000000000000000000000008152600401611c7290613097565b60405180910390fd5b611c848161176a565b15611cc4576040517f08c379a0000000000000000000000000000000000000000000000000000000008152600401611cbb90613103565b60405180910390fd5b611cd26000838360016117ab565b611cdb8161176a565b15611d1b576040517f08c379a0000000000000000000000000000000000000000000000000000000008152600401611d1290613103565b60405180910390fd5b6001600360008473ffffffffffffffffffffffffffffffffffffffff1673ffffffffffffffffffffffffffffffffffffffff16815260200190815260200160002060008282540192505081905550816002600083815260200190815260200160002060006101000a81548173ffffffffffffffffffffffffffffffffffffffff021916908373ffffffffffffffffffffffffffffffffffffffff160217905550808273ffffffffffffffffffffffffffffffffffffffff16600073ffffffffffffffffffffffffffffffffffffffff167fddf252ad1be2c89b69c2b068fc378daa952ba7f163c4a11628f55a4df523b3ef60405160405180910390a4611e256000838360016118d1565b5050565b6000808273ffffffffffffffffffffffffffffffffffffffff163b119050919050565b604051806060016040528060608152602001600081526020016000151581525090565b6000604051905090565b600080fd5b600080fd5b60007fffffffff0000000000000000000000000000000000000000000000000000000082169050919050565b611eb881611e83565b8114611ec357600080fd5b50565b600081359050611ed581611eaf565b92915050565b600060208284031215611ef157611ef0611e79565b5b6000611eff84828501611ec6565b91505092915050565b60008115159050919050565b611f1d81611f08565b82525050565b6000602082019050611f386000830184611f14565b92915050565b600081519050919050565b600082825260208201905092915050565b60005b83811015611f78578082015181840152602081019050611f5d565b60008484015250505050565b6000601f19601f8301169050919050565b6000611fa082611f3e565b611faa8185611f49565b9350611fba818560208601611f5a565b611fc381611f84565b840191505092915050565b60006020820190508181036000830152611fe88184611f95565b905092915050565b6000819050919050565b61200381611ff0565b811461200e57600080fd5b50565b60008135905061202081611ffa565b92915050565b60006020828403121561203c5761203b611e79565b5b600061204a84828501612011565b91505092915050565b600073ffffffffffffffffffffffffffffffffffffffff82169050919050565b600061207e82612053565b9050919050565b61208e81612073565b82525050565b60006020820190506120a96000830184612085565b92915050565b6120b881612073565b81146120c357600080fd5b50565b6000813590506120d5816120af565b92915050565b600080604083850312156120f2576120f1611e79565b5b6000612100858286016120c6565b925050602061211185828601612011565b9150509250929050565b61212481611ff0565b82525050565b600060208201905061213f600083018461211b565b92915050565b600082825260208201905092915050565b600061216182611f3e565b61216b8185612145565b935061217b818560208601611f5a565b61218481611f84565b840191505092915050565b61219881611ff0565b82525050565b6121a781611f08565b82525050565b600060608301600083015184820360008601526121ca8282612156565b91505060208301516121df602086018261218f565b5060408301516121f2604086018261219e565b508091505092915050565b6000602082019050818103600083015261221781846121ad565b905092915050565b60008060006060848603121561223857612237611e79565b5b6000612246868287016120c6565b9350506020612257868287016120c6565b925050604061226886828701612011565b9150509250925092565b600080fd5b600080fd5b7f4e487b7100000000000000000000000000000000000000000000000000000000600052604160045260246000fd5b6122b482611f84565b810181811067ffffffffffffffff821117156122d3576122d261227c565b5b80604052505050565b60006122e6611e6f565b90506122f282826122ab565b919050565b600067ffffffffffffffff8211156123125761231161227c565b5b61231b82611f84565b9050602081019050919050565b82818337600083830152505050565b600061234a612345846122f7565b6122dc565b90508281526020810184848401111561236657612365612277565b5b612371848285612328565b509392505050565b600082601f83011261238e5761238d612272565b5b813561239e848260208601612337565b91505092915050565b600080604083850312156123be576123bd611e79565b5b600083013567ffffffffffffffff8111156123dc576123db611e7e565b5b6123e885828601612379565b92505060206123f985828601612011565b9150509250929050565b60006020828403121561241957612418611e79565b5b6000612427848285016120c6565b91505092915050565b61243981611f08565b811461244457600080fd5b50565b60008135905061245681612430565b92915050565b6000806040838503121561247357612472611e79565b5b6000612481858286016120c6565b925050602061249285828601612447565b9150509250929050565b600067ffffffffffffffff8211156124b7576124b661227c565b5b6124c082611f84565b9050602081019050919050565b60006124e06124db8461249c565b6122dc565b9050828152602081018484840111156124fc576124fb612277565b5b612507848285612328565b509392505050565b600082601f83011261252457612523612272565b5b81356125348482602086016124cd565b91505092915050565b6000806000806080858703121561255757612556611e79565b5b6000612565878288016120c6565b9450506020612576878288016120c6565b935050604061258787828801612011565b925050606085013567ffffffffffffffff8111156125a8576125a7611e7e565b5b6125b48782880161250f565b91505092959194509250565b600080604083850312156125d7576125d6611e79565b5b60006125e5858286016120c6565b92505060206125f6858286016120c6565b9150509250929050565b7f4e487b7100000000000000000000000000000000000000000000000000000000600052602260045260246000fd5b6000600282049050600182168061264757607f821691505b60208210810361265a57612659612600565b5b50919050565b7f4552433732313a20617070726f76616c20746f2063757272656e74206f776e6560008201527f7200000000000000000000000000000000000000000000000000000000000000602082015250565b60006126bc602183611f49565b91506126c782612660565b604082019050919050565b600060208201905081810360008301526126eb816126af565b9050919050565b7f4552433732313a20617070726f76652063616c6c6572206973206e6f7420746f60008201527f6b656e206f776e6572206f7220617070726f76656420666f7220616c6c000000602082015250565b600061274e603d83611f49565b9150612759826126f2565b604082019050919050565b6000602082019050818103600083015261277d81612741565b9050919050565b7f4552433732313a2063616c6c6572206973206e6f7420746f6b656e206f776e6560008201527f72206f7220617070726f76656400000000000000000000000000000000000000602082015250565b60006127e0602d83611f49565b91506127eb82612784565b604082019050919050565b6000602082019050818103600083015261280f816127d3565b9050919050565b600081905092915050565b50565b6000612831600083612816565b915061283c82612821565b600082019050919050565b600061285282612824565b9150819050919050565b7f4e487b7100000000000000000000000000000000000000000000000000000000600052601160045260246000fd5b600061289682611ff0565b91507fffffffffffffffffffffffffffffffffffffffffffffffffffffffffffffffff82036128c8576128c761285c565b5b600182019050919050565b60008190508160005260206000209050919050565b60006020601f8301049050919050565b600082821b905092915050565b6000600883026129357fffffffffffffffffffffffffffffffffffffffffffffffffffffffffffffffff826128f8565b61293f86836128f8565b95508019841693508086168417925050509392505050565b6000819050919050565b600061297c61297761297284611ff0565b612957565b611ff0565b9050919050565b6000819050919050565b61299683612961565b6129aa6129a282612983565b848454612905565b825550505050565b600090565b6129bf6129b2565b6129ca81848461298d565b505050565b5b818110156129ee576129e36000826129b7565b6001810190506129d0565b5050565b601f821115612a3357612a04816128d3565b612a0d846128e8565b81016020851015612a1c578190505b612a30612a28856128e8565b8301826129cf565b50505b505050565b600082821c905092915050565b6000612a5660001984600802612a38565b1980831691505092915050565b6000612a6f8383612a45565b9150826002028217905092915050565b612a8882611f3e565b67ffffffffffffffff811115612aa157612aa061227c565b5b612aab825461262f565b612ab68282856129f2565b600060209050601f831160018114612ae95760008415612ad7578287015190505b612ae18582612a63565b865550612b49565b601f198416612af7866128d3565b60005b82811015612b1f57848901518255600182019150602085019450602081019050612afa565b86831015612b3c5784890151612b38601f891682612a45565b8355505b6001600288020188555050505b505050505050565b7f4552433732313a20696e76616c696420746f6b656e2049440000000000000000600082015250565b6000612b87601883611f49565b9150612b9282612b51565b602082019050919050565b60006020820190508181036000830152612bb681612b7a565b9050919050565b7f4552433732313a2061646472657373207a65726f206973206e6f74206120766160008201527f6c6964206f776e65720000000000000000000000000000000000000000000000602082015250565b6000612c19602983611f49565b9150612c2482612bbd565b604082019050919050565b60006020820190508181036000830152612c4881612c0c565b9050919050565b600081905092915050565b6000612c6582611f3e565b612c6f8185612c4f565b9350612c7f818560208601611f5a565b80840191505092915050565b6000612c978285612c5a565b9150612ca38284612c5a565b91508190509392505050565b7f4552433732313a207472616e736665722066726f6d20696e636f72726563742060008201527f6f776e6572000000000000000000000000000000000000000000000000000000602082015250565b6000612d0b602583611f49565b9150612d1682612caf565b604082019050919050565b60006020820190508181036000830152612d3a81612cfe565b9050919050565b7f4552433732313a207472616e7366657220746f20746865207a65726f2061646460008201527f7265737300000000000000000000000000000000000000000000000000000000602082015250565b6000612d9d602483611f49565b9150612da882612d41565b604082019050919050565b60006020820190508181036000830152612dcc81612d90565b9050919050565b7f4552433732313a20617070726f766520746f2063616c6c657200000000000000600082015250565b6000612e09601983611f49565b9150612e1482612dd3565b602082019050919050565b60006020820190508181036000830152612e3881612dfc565b9050919050565b7f4552433732313a207472616e7366657220746f206e6f6e20455243373231526560008201527f63656976657220696d706c656d656e7465720000000000000000000000000000602082015250565b6000612e9b603283611f49565b9150612ea682612e3f565b604082019050919050565b60006020820190508181036000830152612eca81612e8e565b9050919050565b7f4e487b7100000000000000000000000000000000000000000000000000000000600052601260045260246000fd5b6000612f0b82611ff0565b9150612f1683611ff0565b9250828203905081811115612f2e57612f2d61285c565b5b92915050565b6000612f3f82611ff0565b9150612f4a83611ff0565b9250828201905080821115612f6257612f6161285c565b5b92915050565b600081519050919050565b600082825260208201905092915050565b6000612f8f82612f68565b612f998185612f73565b9350612fa9818560208601611f5a565b612fb281611f84565b840191505092915050565b6000608082019050612fd26000830187612085565b612fdf6020830186612085565b612fec604083018561211b565b8181036060830152612ffe8184612f84565b905095945050505050565b60008151905061301881611eaf565b92915050565b60006020828403121561303457613033611e79565b5b600061304284828501613009565b91505092915050565b7f4552433732313a206d696e7420746f20746865207a65726f2061646472657373600082015250565b6000613081602083611f49565b915061308c8261304b565b602082019050919050565b600060208201905081810360008301526130b081613074565b9050919050565b7f4552433732313a20746f6b656e20616c7265616479206d696e74656400000000600082015250565b60006130ed601c83611f49565b91506130f8826130b7565b602082019050919050565b6000602082019050818103600083015261311c816130e0565b905091905056fea264697066735822122071e1c1e6bea62c8c417a461e18451441b2105a76cfc9d77d02ac5a9ee057d44764736f6c63430008110033",
  "linkReferences": {},
  "deployedLinkReferences": {}
}